{
  "contractName": "MyContract",
  "abi": [
    {
      "inputs": [],
      "stateMutability": "nonpayable",
      "type": "constructor"
    },
    {
      "inputs": [
        {
          "internalType": "int256",
          "name": "a",
          "type": "int256"
        },
        {
          "internalType": "int256",
          "name": "b",
          "type": "int256"
        }
      ],
      "name": "testFomula",
      "outputs": [
        {
          "internalType": "int256",
          "name": "",
          "type": "int256"
        }
      ],
      "stateMutability": "view",
      "type": "function",
      "constant": true
    }
  ],
  "bytecode": "0x608060405234801561001057600080fd5b50336000806101000a81548173ffffffffffffffffffffffffffffffffffffffff021916908373ffffffffffffffffffffffffffffffffffffffff160217905550610320806100606000396000f3fe608060405234801561001057600080fd5b506004361061002b5760003560e01c8063a2f4676c14610030575b600080fd5b61004a60048036038101906100459190610140565b610060565b604051610057919061018f565b60405180910390f35b60008060009054906101000a900473ffffffffffffffffffffffffffffffffffffffff1673ffffffffffffffffffffffffffffffffffffffff163373ffffffffffffffffffffffffffffffffffffffff16146100f1576040517f08c379a00000000000000000000000000000000000000000000000000000000081526004016100e890610207565b60405180910390fd5b81836100fd9190610256565b905092915050565b600080fd5b6000819050919050565b61011d8161010a565b811461012857600080fd5b50565b60008135905061013a81610114565b92915050565b6000806040838503121561015757610156610105565b5b60006101658582860161012b565b92505060206101768582860161012b565b9150509250929050565b6101898161010a565b82525050565b60006020820190506101a46000830184610180565b92915050565b600082825260208201905092915050565b7f596f7520617265206e6f7420746865206f776e65720000000000000000000000600082015250565b60006101f16015836101aa565b91506101fc826101bb565b602082019050919050565b60006020820190508181036000830152610220816101e4565b9050919050565b7f4e487b7100000000000000000000000000000000000000000000000000000000600052601160045260246000fd5b60006102618261010a565b915061026c8361010a565b9250817f7fffffffffffffffffffffffffffffffffffffffffffffffffffffffffffffff038313600083121516156102a7576102a6610227565b5b817f80000000000000000000000000000000000000000000000000000000000000000383126000831216156102df576102de610227565b5b82820190509291505056fea264697066735822122092df1892ac327cad4700987fbc5288ba1dba054ca02e2bbdc5337faa3907070a64736f6c634300080a0033",
  "immutableReferences": {},
  "source": "// SPDX-License-Identifier: MIT\npragma solidity >=0.4.22 <0.9.0;\n\ncontract MyContract {\n  address owner;\n\n  constructor() public{\n    owner = msg.sender;\n  }\n\n  modifier isOwner() {\n    require(msg.sender == owner, \"You are not the owner\");\n    _;\n  }\n\n  function testFomula(int256 a, int256 b) view public isOwner() returns(int256){\n    return a + b;\n  }\n}\n",
  "sourcePath": "/home/ubuntu/myprojetc/contracts/MyContract.sol",
  "compiler": {
    "name": "solc",
    "version": "0.8.10+commit.fc410830.Emscripten.clang"
  },
  "schemaVersion": "3.4.4",
  "updatedAt": "2021-12-29T04:24:38.522Z",
  "networkType": "ethereum",
  "devdoc": {
    "kind": "dev",
    "methods": {},
    "version": 1
  },
  "userdoc": {
    "kind": "user",
    "methods": {},
    "version": 1
  }
}